S01700004763634170706C69636174696F6E322E737265635A
S11300007AC094C05AC692C091C090C068C68EC0CF
S11300108DC08CC08BC08AC089C088C087C086C090
S113002085C084C083C082C081C080C07FC07EC0C0
S11300307DC07CC07BC07AC079C078C054617374C1
S113004065205334206472757E636B656E2E2020A8
S113005000204661726274657374204C6175666C2D
S1130060696368743A005461737465205331206481
S1130070727E636B656E2E202000205247422D480D
S1130080656C6C69676B6569743A202020200054A4
S1130090617374652053322064727E636B656E2EC7
S11300A0202000204C69636874203A0020506F744B
S11300B06920203A002050574D20616D204175730E
S11300C067616E67205041353A005461737465204E
S11300D053312064727E636B656E2E2020200020D5
S11300E046617262626C696E6B656E3A20202020F4
S11300F020202020000011241FBECFEFD2E0DEBF5D
S1130100CDBF11E0A0E0B1E0EEE2FEE002C0059058
S11301100D92A230B107D9F721E0A2E0B1E001C00D
S11301201D92AB31B207E1F702D07FC669CFCF92FF
S1130130EF920F93CF93DF93CDB7DEB72C970FB623
S1130140F894DEBF0FBECDBFCDD434D456D48FEDDA
S113015090E0AC0160E080E0E6D288E390E028E340
S113016030E0F9012081287FFC0120831C821B825E
S113017046C088E390E028E330E0F9012081216063
S1130180FC01208364EF71E080E090E024D288E3F6
S113019090E028E330E0F90120812260FC01208313
S11301A064EF71E080E090E016D288E390E028E309
S11301B030E0F9012081287FFC01208388E390E06E
S11301C028E330E0F90120812460FC01208364EFFE
S11301D071E080E090E0FFD188E390E028E330E034
S11301E0F90120812B7FFC01208364EF71E080E022
S11301F090E0F1D18B819C8101969C838B838B81D0
S11302009C81039708F4B5CF88E390E028E330E0BD
S1130210F90120812260FC0120838AEC90E0AC018A
S113022060E083E080D2000080910F019091100182
S1130230892BD1F3000080910F0190911001019757
S1130240D1F385EB90E0AC0160E080E06CD28CEA05
S113025090E0AC0160E081E066D283EA90E0AC011A
S113026060E082E060D28FE890E0AC0160E083E07F
S11302705AD246C087E0CCD39E838D8383E0C8D313
S11302809A8389838D819E81CC01A0E0B0E0C12C4A
S1130290E12C04E09C01AD0169E081E080D2898118
S11302A09A81CC01A0E0B0E0C12CE12C04E09C01D7
S11302B0AD0169E082E073D28BE390E02BE330E0A0
S11302C0F90120812062FC01208364E170E080E078
S11302D090E081D18BE390E02BE330E0F9012081C1
S11302E02F7DFC01208389819A812AE030E0B901C5
S11302F066D5CB01CC01A0E0B0E0BC01CD016BD14F
S11303008091150190911601892B09F4B3CF000057
S113031080911501909116010197D1F38AE790E03D
S1130320AC0160E080E0FFD186E690E0AC0160E0E3
S113033083E0F9D15FC087E06BD39E838D8383E034
S113034067D39A8389838D819E81CC01A0E0B0E03C
S1130350C12CE12C04E09C01AD0169E081E01FD2D5
S113036089819A81C29718F41A82198205C08981F9
S11303709A81C2979A83898389819A81CC01A0E06A
S1130380B0E0C12CE12C04E09C01AD0169E082E005
S113039006D289819A8127E330E0B90110D5CB01D7
S11303A09A83898329813A8181E090E002C0880F91
S11303B0991F2A95E2F79A83898389819A81803DDE
S11303C0974068F489819A819C01209530958981B0
S11303D09A81A901BC0180E090E035D30BC08981EA
S11303E09A819C012095309589819A81A90160E0C8
S11303F070E029D380910F0190911001892B09F4A9
S11304009ACF000080910F01909110010197D1F3D0
S113041081E590E0AC0160E080E085D18CE390E080
S1130420AC0160E083E07FD14FEF5FEF6FEF7FEFD0
S11304308FEF9FEF08D3000080911101909112017A
S1130440892BD1F300008091110190911201892B25
S1130450D1F740E050E060E070E08FEF9FEFF3D21F
S113046000008091110190911201892BD1F30000B9
S11304708091110190911201892BD1F740E050E055
S11304806FEF7FEF80E090E0DED2000080911101F9
S113049090911201892BD1F3000080911101909168
S11304A01201892BD1F74FEF5FEF60E070E080E03D
S11304B090E0C9D200008091110190911201892B22
S11304C0D1F300008091110190911201892BD1F791
S11304D073C082E390E098878F831C821B821BC0C9
S11304E02B813C8181E090E002C0880F991F2A95FE
S11304F0E2F740E050E060E070E0A5D28F8198859B
S1130500CC01A0E0B0E0BC01CD0165D08B819C8121
S113051001969C838B838B819C81409708F31C827A
S11305201B821CC02B813C8181E090E002C0880FBB
S1130530991F2A95E2F740E050E0BC0180E090E08A
S113054082D28F819885CC01A0E0B0E0BC01CD01BE
S113055042D08B819C8101969C838B838B819C816F
S1130560409700F31C821B821CC02B813C8181E0DC
S113057090E002C0880F991F2A95E2F7AC0160E071
S113058070E080E090E05FD28F819885CC01A0E09C
S1130590B0E0BC01CD011FD08B819C8101969C836E
S11305A08B838B819C81409700F340E050E060E0B6
S11305B070E080E090E047D28091110190911201A7
S11305C0892B09F486CF00008091110190911201CA
S11305D0892BD1F7BCCDCF93DF9300D000D0CDB71A
S11305E0DEB769837A838B839C8389819A81AB810B
S11305F0BC81892B8A2B8B2B69F089819A81AB81F1
S1130600BC818093070190930801A0930901B093E2
S11306100A010CC081E090E0A0E0B0E08093070103
S113062090930801A0930901B0930A0100008091FE
S1130630070190910801A0910901B0910A01019765
S1130640A105B105A1F70F900F900F900F90DF91C6
S1130650CF910895CF93DF9300D0CDB7DEB78A83CF
S1130660198204C0000089818F5F898399818A81FE
S11306709817C0F30F900F90DF91CF91089591E0F8
S113068090930201DC9ADE98DE98DE9ADE9ADE9878
S1130690DE98DE9ADE9ADE98DE98DE9ADE9ADE989E
S11306A0DE98DE9ADE9ADE98DE98DE9ADC98DE9892
S11306B0DE98DE9A8334A9F1DC9ADE98DE98DE9A1D
S11306C0DC98DE98DE98DE9A84E0DE9860FF27C02E
S11306D0DC9A6695DE98DE9A8150B9F7DC9884E05E
S11306E0DE98DE98DE9A8150D9F784E0DE9860FFC8
S11306F014C0DC9A6695DE98DE9A8150B9F7DC98CE
S113070084E0DE98DE98DE9A8150D9F784E1DC9AA1
S11307108150E9F7109202010895DC98EBCFDC9840
S1130720D8CFDC98CACF0F931F93CF938A018295B9
S1130730880F807E680F606883E4A1DFF80164910C
S1130740662361F0C1E084E49ADF81E08C0FF80154
S1130750EC0FF11D6491C82F6111F5CFCF911F915A
S11307600F9108950F931F93CF938A018295880F59
S1130770807E680F606883E482DFF801608166230D
S113078051F0C0E0CF5F84E47ADFF801EC0FF11D93
S113079060816111F7CFCF911F910F9108952F922E
S11307A03F924F925F926F927F928F929F92AF92FD
S11307B0BF92CF92DF92EF92FF920F931F93CF934A
S11307C0DF93CDB7DEB763970FB6F894DEBF0FBEE5
S11307D0CDBF8A8B6B8B29013A01C88A043608F491
S11307E0DCC00456198A0B3008F00AE0EF868889C9
S11307F08E1508F48F87202E312CC101EF858E0FC2
S1130800911D0B971CF08AE0801B8F87C301B201F6
S11308102AE030E040E050E0E6D2605D6C871AE008
S11308203AE0C32ED12CE12CF12C4AE0842E912CF9
S1130830A12CB12C81E090E08C0F9D1F810F911DA4
S11308409E878D87C301B201A7019601CCD2CA014C
S1130850B901A5019401C7D2605DED85FE85608371
S1130860CC0CDD1CEE1CFF1CD701C601880F991FA0
S1130870AA1FBB1F880F991FAA1FBB1FC80ED91E12
S1130880EA1EFB1E1150B0F62CE0F8892F1B822FB4
S1130890801B002309F484C0FE013196A1E0B0E07E
S11308A0AC0FBD1FA80FB11D9C9191938F5F821354
S11308B0F5CF8F8581114EC0F10181E090E08C0F5E
S11308C09D1FE80FF91F10829989992321F18981CD
S11308D0803309F5A1014150510914161506DCF4C1
S11308E080E090E020E060E203C0841795079CF468
S11308F02F5FE1E0F0E0EC0FFD1FE80FF91F6083CC
S1130900822F90E0E1E0F0E0EC0FFD1FE80FF91F0B
S11309103081303351F3AE014F5F5F4F6B898A8969
S113092021DF63960FB6F894DEBF0FBECDBFDF9113
S1130930CF911F910F91FF90EF90DF90CF90BF90D8
S1130940AF909F908F907F906F905F904F903F906B
S11309502F9008950F5F8EE2E1E0F0E0EC0FFD1FB1
S1130960E20DF31D8083E02F201B822F8E0FA1E068
S1130970B0E0AC0FBD1FA80FB11D8C91A1E0B0E099
S1130980AC0FBD1FAE0FB11D8C93EF5F8E2F801B7C
S11309909F85891750F3F0E090CF21E0298B23CF76
S11309A0EF85EE2321F08EE2898301E0DCCFE0E0E5
S11309B0F0E083CFCF93D49AD69AC2E388E74ADE95
S11309C0C150E1F764E383E45ADE64E383E457DE71
S11309D069E083E454DE60E383E451DE6CE083E4A5
S11309E04EDE61E083E44BDEC8E088E733DEC150CD
S11309F0E1F767E083E4CF9142CECF9361E083E4F3
S1130A003EDEC8E088E726DEC150E1F7CF910895C5
S1130A10CF9389B98C3079F018B885B1806C85B9D9
S1130A202E99FECF26B187B190E0982F8827820FA8
S1130A30911DCF91089581E088B9C8E088E70ADE66
S1130A40C150E1F7EACFDC0190930E0180930D01D0
S1130A50709314016093130150931801409317018C
S1130A60D29A81E080930201DA98D89890E120E04C
S1130A7030E817C0DC9ADA9ADA98F901E623F7230A
S1130A80EF2BE1F0DC9ADA9ADA98F901EA23FB23F6
S1130A90EF2BE1F0DC9ADA9ADA98369527959150A3
S1130AA0E1F0F901E423F523EF2B21F7DC98DA9A3E
S1130AB0DA98F901E623F723EF2B21F7DC98DA9A89
S1130AC0DA98F901EA23FB23EF2B21F7DC98DA9A71
S1130AD0DA9836952795915021F7D998D99A10929A
S1130AE00201089510927300E0E7F0E080818E7FA8
S1130AF0808385B1806C85B9BA9A80B7816880BFDC
S1130B0080B7816280BF16BE8AE08CBF83B78360E2
S1130B1083BF83B5816883BD8FEF91E09DBD8CBD9C
S1130B208FB58FBD8FB58FBD8EB588608EBD8EB5E8
S1130B3082608EBD82B582BD87EE93E09BBD8ABD87
S1130B40799A83B58F7783BD8BB780618BBF929A77
S1130B5078948AB383608ABB8BB38C7F8BBBD19A26
S1130B60D29AD59AD398D798D29A87B3876087BBFD
S1130B7040E050E060E070E080E090E064CFDA981C
S1130B80D89840E180E090E81EC0DC9ADA9ADA98BE
S1130B90209113013091140128233923232B09F4C4
S1130BA071C0DC9ADA9ADA9820910D0130910E0125
S1130BB028233923232B89F0DC9ADA9ADA9896953C
S1130BC08795415089F0209117013091180128230D
S1130BD03923232BD1F6DC98D9CFDC98DA9ADA982A
S1130BE096958795415079F7D998D99ADA98D298F9
S1130BF0D998D99ADC9880E140E050E021E030E0D7
S1130C00CA9B02C0422B532B220F331FDC9ADC9861
S1130C108150B1F7D29A8AE0A0E0B0E060E072E0DF
S1130C2021E030E0F901E423F523EF2B11F0A62BAA
S1130C30B72B220F331F76956795815099F7B093A0
S1130C400C01A0930B0152FF1FC081E090E0909330
S1130C50100180930F0153FF1DC081E090E0909339
S1130C6016018093150154FF1BC081E090E090931E
S1130C701A018093190155FD19C0109212011092A6
S1130C8011010895DC988ECF1092100110920F017B
S1130C9053FDE3CF109216011092150154FDE5CFD8
S1130CA010921A011092190155FFE7CF81E090E0EC
S1130CB0909312018093110108951F920F92009056
S1130CC05F000F921124CF93DF93CDB7DEB7DF918E
S1130CD0CF910F9000925F000F901F9018951F9274
S1130CE00F9200905F000F9211242F933F934F9324
S1130CF05F936F937F938F939F93AF93BF93EF9380
S1130D00FF93CF93DF93CDB7DEB78091030190912A
S1130D100401A0910501B09106010196A11DB11D28
S1130D208093030190930401A0930501B0930601FD
S1130D308091070190910801A0910901B0910A01E5
S1130D40892B8A2B8B2B99F08091070190910801B4
S1130D50A0910901B0910A010197A109B1098093F9
S1130D60070190930801A0930901B0930A018091AF
S1130D70000190910101892B49F08091000190912B
S1130D800101019790930101809300018091020178
S1130D90882309F4F4DEDF91CF91FF91EF91BF91A5
S1130DA0AF919F918F917F916F915F914F913F91FF
S1130DB02F910F9000925F000F901F901895AA1B1F
S1130DC0BB1B51E107C0AA1FBB1FA617B70710F032
S1130DD0A61BB70B881F991F5A95A9F78095909564
S1130DE0BC01CD010895A1E21A2EAA1BBB1BFD0173
S1130DF00DC0AA1FBB1FEE1FFF1FA217B307E407F6
S1130E00F50720F0A21BB30BE40BF50B661F771F4D
S1130E10881F991F1A9469F760957095809590952D
S1110E209B01AC01BD01CF010895F894FFCFF2
S1050E2EC800F6
S9030000FC
