:100000007AC094C061C692C091C090C070C68EC0C4
:100010008DC08CC08BC08AC089C088C087C086C094
:1000200085C084C083C082C081C080C07FC07EC0C4
:100030007DC07CC07BC07AC079C078C02046617228
:1000400062626C696E6B656E3A2020202020202051
:10005000200054617374652053312064727E636B99
:10006000656E2E202020002050574D20616D2041CC
:10007000757367616E67205041353A0020506F7488
:100080006920203A00204C69636874203A0054616A
:100090007374652053322064727E636B656E2E200C
:1000A0002000205247422D48656C6C69676B65697A
:1000B000743A20202020005461737465205331204D
:1000C00064727E636B656E2E202000204661726232
:1000D00074657374204C6175666C696368743A006A
:1000E0005461737465205334206472757E636B654C
:1000F0006E2E2020000011241FBECFEFD2E0DEBF05
:10010000CDBF11E0A0E0B1E0E0E4FEE002C0059068
:100110000D92A230B107D9F721E0A2E0B1E001C011
:100120001D92AB31B207E1F702D088C669CFCF92FA
:10013000EF920F93CF93DF93CDB7DEB728970FB62B
:10014000F894DEBF0FBECDBFCBD432D454D48CE3F1
:1001500090E0AC0160E080E0E4D288E390E028E346
:1001600030E0F9012081287FFC0120831C821B8262
:1001700046C088E390E028E330E0F9012081216067
:10018000FC01208364EF71E080E090E020D288E3FE
:1001900090E028E330E0F90120812260FC01208317
:1001A00064EF71E080E090E012D288E390E028E311
:1001B00030E0F9012081287FFC01208388E390E072
:1001C00028E330E0F90120812460FC01208364EF02
:1001D00071E080E090E0FBD188E390E028E330E03C
:1001E000F90120812B7FFC01208364EF71E080E026
:1001F00090E0EDD18B819C8101969C838B838B81D8
:100200009C81039708F4B5CF88E390E028E330E0C1
:10021000F90120812260FC01208382E590E0AC019D
:1002200060E083E07ED2000080910F019091100188
:10023000892BD1F3000080910F019091100101975B
:10024000D1F387E690E0AC0160E080E06AD28CE711
:1002500090E0AC0160E081E064D285E890E0AC0120
:1002600060E082E05ED28EE890E0AC0160E083E086
:1002700058D246C087E0CAD39E838D8383E0C6D31D
:100280009A8389838D819E81CC01A0E0B0E0C12C4E
:10029000E12C04E09C01AD0169E081E07ED289811E
:1002A0009A81CC01A0E0B0E0C12CE12C04E09C01DB
:1002B000AD0169E082E071D28BE390E02BE330E0A6
:1002C000F90120812062FC01208364E170E080E07C
:1002D00090E07DD18BE390E02BE330E0F9012081C9
:1002E0002F7DFC01208389819A812AE030E0B901C9
:1002F0006FD5CB01CC01A0E0B0E0BC01CD0167D14E
:100300008091150190911601892B09F4B3CF00005B
:1003100080911501909116010197D1F382EA90E046
:10032000AC0160E080E0FDD187EB90E0AC0160E0E3
:1003300083E0F7D15EC087E069D39E838D8383E03D
:1003400065D39A8389838D819E81CC01A0E0B0E042
:10035000C12CE12C04E09C01AD0169E081E01DD2DB
:1003600089819A81C29718F41A82198205C08981FD
:100370009A81C2979A83898389819A81CC01A0E06E
:10038000B0E0C12CE12C04E09C01AD0169E082E009
:1003900004D289819A8127E330E0B90119D5CB01D4
:1003A0009A83898381E090E0098002C0880F991FB9
:1003B0000A94E2F79A83898389819A81803D9740E4
:1003C00068F489819A819C012095309589819A8170
:1003D000A901BC0180E090E034D30BC089819A81EF
:1003E0009C012095309589819A81A90160E070E097
:1003F00028D380910F0190911001892B09F49BCF94
:10040000000080910F01909110010197D1F38BECC6
:1004100090E0AC0160E080E084D180EE90E0AC013F
:1004200060E083E07ED14FEF5FEF6FEF7FEF8FEF04
:100430009FEF07D300008091110190911201892B49
:10044000D1F300008091110190911201892BD1F715
:1004500040E050E060E070E08FEF9FEFF2D20000EC
:100460008091110190911201892BD1F300008091AC
:10047000110190911201892BD1F740E050E06FEF0C
:100480007FEF80E090E0DDD200008091110190913B
:100490001201892BD1F3000080911101909112017A
:1004A000892BD1F74FEF5FEF60E070E080E090E0E4
:1004B000C8D200008091110190911201892BD1F3D3
:1004C00000008091110190911201892BD1F770C029
:1004D00082E390E098878F831C821B821AC081E0A0
:1004E00090E00B8002C0880F991F0A94E2F740E069
:1004F00050E060E070E0A5D28F819885CC01A0E04B
:10050000B0E0BC01CD0163D08B819C8101969C83BE
:100510008B838B819C81409710F31C821B821BC0B4
:1005200081E090E00B8002C0880F991F0A94E2F7E7
:1005300040E050E0BC0180E090E083D28F8198855C
:10054000CC01A0E0B0E0BC01CD0141D08B819C8109
:1005500001969C838B838B819C81409708F31C823E
:100560001B821BC081E090E00B8002C0880F991FA6
:100570000A94E2F7AC0160E070E080E090E061D2C4
:100580008F819885CC01A0E0B0E0BC01CD011FD0E7
:100590008B819C8101969C838B838B819C8140976E
:1005A00008F340E050E060E070E080E090E049D285
:1005B0008091110190911201892B09F489CF0000DB
:1005C0008091110190911201892BD1F7C0CDCF9369
:1005D000DF9300D000D0CDB7DEB769837A838B83F9
:1005E0009C8389819A81AB81BC81892B8A2B8B2B3F
:1005F00069F089819A81AB81BC81809302019093DB
:100600000301A0930401B09305010CC081E090E0C8
:10061000A0E0B0E08093020190930301A093040155
:10062000B093050100008091020190910301A09117
:100630000401B09105010197A105B105A1F70000E2
:100640000F900F900F900F90DF91CF910895CF935F
:10065000DF9300D0CDB7DEB78A83198204C00000D3
:1006600089818F5F898399818A819817C0F30000FF
:100670000F900F90DF91CF91089591E090930A0130
:10068000DC9ADE98DE98DE9ADE9ADE98DE98DE9AB4
:10069000DE9ADE98DE98DE9ADE9ADE98DE98DE9AA2
:1006A000DE9ADE98DE98DE9ADC98DE98DE98DE9A96
:1006B0008334A9F1DC9ADE98DE98DE9ADC98DE9825
:1006C000DE98DE9A84E0DE9860FF27C0DC9A6695AB
:1006D000DE98DE9A8150B9F7DC9884E0DE98DE98E7
:1006E000DE9A8150D9F784E0DE9860FF14C0DC9A6E
:1006F0006695DE98DE9A8150B9F7DC9884E0DE9842
:10070000DE98DE9A8150D9F784E1DC9A8150E9F7CE
:1007100010920A010895DC98EBCFDC98D8CFDC98D2
:10072000CACF0F931F93DF938A018295880F807E33
:10073000680F606883E4A1DFF8016491662361F0CB
:10074000D1E084E49ADF81E08D0FF801ED0FF11D17
:100750006491D82F6111F5CFDF911F910F9108950A
:100760000F931F93DF938A018295880F807E680F15
:10077000606883E482DFF8016081662351F0D0E095
:10078000DF5F84E47ADFF801ED0FF11D6081611114
:10079000F7CFDF911F910F9108952F923F924F92C3
:1007A0005F926F927F928F929F92AF92BF92CF9201
:1007B000DF92EF92FF920F931F93CF93DF93CDB70A
:1007C000DEB763970FB6F894DEBF0FBECDBF8A8B3E
:1007D0006B8B29013A01C88A043608F4B9C0045663
:1007E000198A0B3008F00AE0EF8688898E1508F424
:1007F0008F87202E312CC101EF858E0F911D0B9715
:100800001CF08AE0801B8F87C301B2012AE030E030
:1008100040E050E0F1D2605D6C871AE03AE0C32E10
:10082000D12CE12CF12C4AE0842E912CA12CB12C5E
:1008300081E090E08C0F9D1F810F911D9E878D8719
:10084000C301B201A7019601D7D2CA01B901A5011E
:100850009401D2D2605DED85FE856083CC0CDD1CF9
:10086000EE1CFF1CD701C601880F991FAA1FBB1FD2
:10087000880F991FAA1FBB1FC80ED91EEA1EFB1E98
:100880001150B0F62CE0F8892F1B822F801B00231B
:1008900009F484C0FE013196A1E0B0E0AC0FBD1FA9
:1008A000A80FB11D9C9191938F5F2813F5CF8F8571
:1008B000811151C0F10181E090E08C0F9D1FE80F84
:1008C000F91F10829989992321F18981803309F5D3
:1008D000A1014150510914161506DCF480E090E0A6
:1008E00020E060E203C0841795079CF42F5FE1E0ED
:1008F000F0E0EC0FFD1FE80FF91F6083822F90E0FE
:10090000E1E0F0E0EC0FFD1FE80FF91F308130331C
:1009100051F3AE014F5F5F4F6B898A8921DF639688
:100920000FB6F894DEBF0FBECDBFDF91CF911F9100
:100930000F91FF90EF90DF90CF90BF90AF909F907E
:100940008F907F906F905F904F903F902F90089581
:1009500021E0298B46CF0F5F8EE2E1E0F0E0EC0F63
:10096000FD1FE20DF31D8083E02F201B822F8E0FD1
:10097000A1E0B0E0AC0FBD1FA80FB11D8C91A1E0AC
:10098000B0E0AC0FBD1FAE0FB11D8C93EF5F8E2F8B
:10099000801B9F85891750F3F0E08DCFEF85EE2304
:1009A00021F08EE2898301E0DFCFE0E0F0E083CF49
:1009B000DF93D49AD69AD2E388E749DED150E1F7A3
:1009C00064E383E45ADE64E383E457DE69E083E4AE
:1009D00054DE60E383E451DE6CE083E44EDE61E0EC
:1009E00083E44BDED8E088E732DED150E1F767E000
:1009F00083E4DF9142CEDF9361E083E43EDED8E022
:100A000088E725DED150E1F7DF910895DF9389B9BA
:100A10008C3079F018B885B1806C85B92E99FECFED
:100A200026B187B190E0982F8827820F911DDF9122
:100A3000089581E088B9D8E088E709DED150E1F770
:100A4000EACFDC0190930E0180930D0170931401A5
:100A5000609313015093180140931701D29A81E0DB
:100A600080930A01DA98D89890E120E030E817C026
:100A7000DC9ADA9ADA98FB01E223F323EF2BE1F018
:100A8000DC9ADA9ADA98FD01E223F323EF2BE1F006
:100A9000DC9ADA9ADA98369527959150E1F0FA01C6
:100AA000E223F323EF2B21F7DC98DA9ADA98FB01A3
:100AB000E223F323EF2B21F7DC98DA9ADA98FD0191
:100AC000E223F323EF2B21F7DC98DA9ADA983695B4
:100AD0002795915021F7D998D99A10920A01089533
:100AE00010927300E0E7F0E080818E7F808385B113
:100AF000806C85B9BA9A80B7816880BF80B78162FF
:100B000080BF16BE8AE08CBF83B7836083BF83B586
:100B1000816883BD8FEF91E09DBD8CBD8FB58FBD8A
:100B20008FB58FBD8EB588608EBD8EB582608EBD4F
:100B300082B582BD87EE93E09BBD8ABD799A83B56D
:100B40008F7783BD8BB780618BBF929A78948AB37D
:100B500083608ABB8BB38C7F8BBBD19AD29AD59A98
:100B6000D398D798D29A87B3876087BB40E050E08C
:100B700060E070E080E090E064CFDA98D89840E1DF
:100B800080E090E81EC0DC9ADA9ADA98209113018E
:100B90003091140128233923232B09F475C0DC9AE2
:100BA000DA9ADA9820910D0130910E012823392329
:100BB000232B89F0DC9ADA9ADA989695879541503A
:100BC00089F0209117013091180128233923232B14
:100BD000D1F6DC98D9CFDC98DA9ADA989695879591
:100BE000415079F7D998D99ADA98D298D998D99A60
:100BF000DC9880E140E050E021E030E0CA9B02C098
:100C0000422B532B220F331FDC9ADC988150B1F713
:100C1000D29A10920C0110920B018AE090E0A0E0B1
:100C2000B0E060E072E021E030E0FA01E223F3237B
:100C3000EF2B19F0A62BB72B91E0220F331F7695DF
:100C40006795815091F791113AC052FF1FC081E022
:100C500090E09093100180930F0153FF1DC081E03D
:100C600090E0909316018093150154FF1BC081E022
:100C700090E090931A018093190155FD19C01092CC
:100C80001201109211010895DC988ACF1092100180
:100C900010920F0153FDE3CF10921601109215012F
:100CA00054FDE5CF10921A011092190155FFE7CFBC
:100CB00081E090E090931201809311010895B09328
:100CC0000C01A0930B01C1CF1F920F9200905F0007
:100CD0000F921124CF93DF93CDB7DEB70000DF91E1
:100CE000CF910F9000925F000F901F9018951F9268
:100CF0000F9200905F000F9211242F933F934F9318
:100D00005F936F937F938F939F93AF93BF93EF9373
:100D1000FF93CF93DF93CDB7DEB78091060190911B
:100D20000701A0910801B09109010196A11DB11D13
:100D30008093060190930701A0930801B0930901E5
:100D40008091020190910301A0910401B0910501ED
:100D5000892B8A2B8B2B99F08091020190910301B2
:100D6000A0910401B09105010197A109B1098093F7
:100D7000020190930301A0930401B09305018091B7
:100D8000000190910101892B49F08091000190911F
:100D900001010197909301018093000180910A0164
:100DA000882309F4EADE0000DF91CF91FF91EF91F3
:100DB000BF91AF919F918F917F916F915F914F9173
:100DC0003F912F910F9000925F000F901F90189508
:100DD000AA1BBB1B51E107C0AA1FBB1FA617B70761
:100DE00010F0A61BB70B881F991F5A95A9F780957D
:100DF0009095BC01CD010895A1E21A2EAA1BBB1B40
:100E0000FD010DC0AA1FBB1FEE1FFF1FA217B307D6
:100E1000E407F50720F0A21BB30BE40BF50B661FEC
:100E2000771F881F991F1A9469F7609570958095B0
:100E300090959B01AC01BD01CF010895F894FFCFBF
:020E4000C800E8
:00000001FF
