S01700004763634170706C69636174696F6E312E737265635B
S1130000F1C00BC18BC409C108C107C19AC405C1A1
S113001004C103C102C101C100C1FFC0FEC0FDC0D3
S1130020FCC0FBC0FAC0F9C0F8C0F7C0F6C0F5C008
S1130030F4C0F3C0F2C0F1C0F0C0EFC01B20202018
S11300402020202020202020202020202020201AB2
S11300500063726561746520436F64653A004F4BB9
S1130060004170706C7965640020202020202020DD
S11300700020202020436F646520637265617465ED
S11300806420202020002020202020202074727949
S113009020746F20637261636B1000636F64653A50
S11300A0202E2E2C2E2E2C2E2E202000112063727A
S11300B06174652074686520636F64652000206244
S11300C061636B2010001120637261746520746891
S11300D06520636F6465200011207374617274205D
S11300E02020DA2020206261636B20100020202071
S11300F0202020594F552057494E202020202020D1
S113010000112063726174652074686520636F64F4
S113011065200011207374617274202020DA20207D
S1130120206261636B201000202020202020594F82
S113013055204C4F5345202020202000112063726D
S11301406174652074686520636F64652000112004
S11301507374617274202020DA2020206261636B42
S1130160201000594F552057494E002000110020FF
S11301700020B200100020002000594F55204C4FA1
S11301805345001120636F646520637261636B657E
S11301907220001120666967687465722067616D5A
S11301A06520001120636F646520637261636B6571
S11301B07220001120666967687465722067616D3A
S11301C06520001120636F646520637261636B6551
S11301D07220001120666967687465722067616D1A
S11301E06520000011241FBECFEFD2E0DEBFCDBFDB
S11301F011E0A0E0B1E0EAE7F3E102C005900D925E
S1130200A632B107D9F721E0A6E2B1E001C01D9200
S1130210A234B207E1F74BD8AEC8F2CECF93DF9346
S113022000D000D0CDB7DEB769837A838B839C83FB
S113023089819A81AB81BC81892B8A2B8B2B69F0B4
S113024089819A81AB81BC81809326019093270197
S1130250A0932801B09329010CC081E090E0A0E0B4
S1130260B0E08093260190932701A0932801B093D6
S1130270290100008091260190912701A091280175
S1130280B09129010197A105B105A1F700000F90D4
S11302900F900F900F90DF91CF910895CF93DF933C
S11302A000D0CDB7DEB78A83198204C000008981EB
S11302B08F5F898399818A819817C0F300000F901A
S11302C00F90DF91CF91089591E090932E01DC9AE5
S11302D0DE98DE98DE9ADE9ADE98DE98DE9ADE9A62
S11302E0DE98DE98DE9ADE9ADE98DE98DE9ADE9A52
S11302F0DE98DE98DE9ADC98DE98DE98DE9A833407
S1130300A9F1DC9ADE98DE98DE9ADC98DE98DE9815
S1130310DE9A84E0DE9860FF27C0DC9A6695DE985A
S1130320DE9A8150B9F7DC9884E0DE98DE98DE9A94
S11303308150D9F784E0DE9860FF14C0DC9A66959A
S1130340DE98DE9A8150B9F7DC9884E0DE98DE9876
S1130350DE9A8150D9F784E1DC9A8150E9F7109252
S11303602E010895DC98EBCFDC98D8CFDC98CACF67
S11303700F931F93DF938A018295880F807E680F05
S1130380606883E4A1DFF8016491662361F0D1E041
S113039084E49ADF81E08D0FF801ED0FF11D649183
S11303A0D82F6111F5CFDF911F910F9108950F930D
S11303B01F93DF938A018295880F807E680F60689F
S11303C083E482DFF8016081662351F0D0E0DF5FCF
S11303D084E47ADFF801ED0FF11D60816111F7CF3C
S11303E0DF911F910F9108952F923F924F925F9248
S11303F06F927F928F929F92AF92BF92CF92DF9231
S1130400EF92FF920F931F93CF93DF93CDB7DEB795
S113041063970FB6F894DEBF0FBECDBF8A8B6B8B8C
S113042029013A01CE86043608F4BAC00456198A62
S11304300B3008F00AE0ED864E854E1508F44D8722
S1130440802F90E0988B8F87ED858E0F911D0B97F1
S11304501CF08AE0801B8D87C301B2012AE030E0E2
S113046040E050E066D7605D6C871AE03AE0C32E46
S1130470D12CE12CF12C4AE0842E912CA12CB12C0E
S113048022242394312C2C0E3D1E210E311CC30139
S1130490B201A70196014DD7CA01B901A501940182
S11304A048D7605DF1016083CC0CDD1CEE1CFF1CA1
S11304B0D701C601880F991FAA1FBB1F880F991F58
S11304C0AA1FBB1FC80ED91EEA1EFB1E1150C0F680
S11304D02CE0FE852F1B822F801B002309F488C08B
S11304E0FE013196A1E0B0E0AC0FBD1FA80FB11D15
S11304F09C9191938F5F2813F5CF4D85411153C083
S1130500EF85F88981E090E08C0F9D1FE80FF91FBB
S113051010829989992329F18981803311F54F85B6
S113052058894150510914161506DCF480E090E016
S113053020E060E203C0841795079CF42F5FE1E09C
S1130540F0E0EC0FFD1FE80FF91F6083822F90E0AD
S1130550E1E0F0E0EC0FFD1FE80FF91F30813033CC
S113056051F3AE014F5F5F4F6B898A8920DF639639
S11305700FB6F894DEBF0FBECDBFDF91CF911F91B0
S11305800F91FF90EF90DF90CF90BF90AF909F902E
S11305908F907F906F905F904F903F902F90089531
S11305A021E0298B45CF0F5F8EE2E1E0F0E0EC0F14
S11305B0FD1F4F855889E40FF51F8083E02F201B12
S11305C09D85822F8E0FA1E0B0E0AC0FBD1FA80F58
S11305D0B11D8C91A1E0B0E0AC0FBD1FAE0FB11DF9
S11305E08C93EF5F8E2F801B891758F3F0E08ACF2E
S11305F0ED85EE2321F08EE2898301E0DFCFE0E098
S1130600F0E080CFDF93D49AD69AD2E388E746DE2F
S1130610D150E1F764E383E457DE64E383E454DE1A
S113062069E083E451DE60E383E44EDE6CE083E45E
S11306304BDE61E083E448DED8E088E72FDED1506A
S1130640E1F767E083E4DF913FCEDF9361E083E489
S11306503BDED8E088E722DED150E1F7DF91089550
S1130660DF9389B98C3079F018B885B1806C85B97D
S11306702E99FECF26B187B190E0982F8827820F5C
S1130680911DDF91089581E088B9D8E088E706DEFE
S1130690D150E1F7EACFDC01909335018093340126
S11306A070933B0160933A0150933F0140933E01A4
S11306B0D29A81E080932E01DA98D89890E120E0D4
S11306C030E817C0DC9ADA9ADA98FB01E223F323C4
S11306D0EF2BE1F0DC9ADA9ADA98FD01E223F323B6
S11306E0EF2BE1F0DC9ADA9ADA9836952795915057
S11306F0E1F0FA01E223F323EF2B21F7DC98DA9AF5
S1130700DA98FB01E223F323EF2B21F7DC98DA9A42
S1130710DA98FD01E223F323EF2B21F7DC98DA9A30
S1130720DA9836952795915021F7D998D99A10924D
S11307302E01089510927300E0E7F0E080818E7F2F
S1130740808385B1806C85B9BA9A80B7816880BF8F
S113075080B7816280BF16BE8AE08CBF83B7836096
S113076083BF83B5816883BD8FEF91E09DBD8CBD50
S11307708FB58FBD8FB58FBD8EB588608EBD8EB59C
S113078082608EBD82B582BD87EE93E09BBD8ABD3B
S1130790799A83B58F7783BD8BB780618BBF929A2B
S11307A078948AB383608ABB8BB38C7F8BBBD19ADA
S11307B0D29AD59AD398D798D29A87B3876087BBB1
S11307C040E050E060E070E080E090E064CFDA98D0
S11307D0D89840E180E090E81EC0DC9ADA9ADA9872
S11307E020913A0130913B0128233923232B09F42A
S11307F075C0DC9ADA9ADA98209134013091350187
S113080028233923232B89F0DC9ADA9ADA989695EF
S11308108795415089F020913E0130913F01282372
S11308203923232BD1F6DC98D9CFDC98DA9ADA98DD
S113083096958795415079F7D998D99ADA98D298AC
S1130840D998D99ADC9880E140E050E021E030E08A
S1130850CA9B02C0422B532B220F331FDC9ADC9815
S11308608150B1F7D29A10923301109232012AE0EA
S113087030E0A0E0B0E060E072E081E090E0FA01F6
S1130880E823F923EF2B19F0A62BB72B31E0880FBF
S1130890991F76956795215091F731113AC052FF0F
S11308A01FC081E090E0909337018093360153FF9D
S11308B01DC081E090E090933D0180933C0154FF82
S11308C01BC081E090E0909341018093400155FD6D
S11308D019C010923901109238010895DC988ACF1A
S11308E0109237011092360153FDE3CF10923D016F
S11308F010923C0154FDE5CF109241011092400149
S113090055FFE7CF81E090E090933901809338015F
S11309100895B0933301A0933201C1CF1F920F9277
S113092000905F000F921124CF93DF93CDB7DEB711
S11309300000DF91CF910F9000925F000F901F9005
S113094018951F920F9200905F000F9211242F931D
S11309503F934F935F936F937F938F939F93AF9343
S1130960BF93EF93FF93CF93DF93CDB7DEB780911F
S11309702A0190912B01A0912C01B0912D01019697
S1130980A11DB11D80932A0190932B01A0932C01EA
S1130990B0932D018091260190912701A091280107
S11309A0B0912901892B8A2B8B2B99F080912601F8
S11309B090912701A0912801B09129010197A109E3
S11309C0B1098093260190932701A0932801B09345
S11309D029018091000190910101892B49F08091B6
S11309E0000190910101019790930101809300010E
S11309F080912E01882309F4EADE0000DF91CF9173
S1130A00FF91EF91BF91AF919F918F917F916F91E2
S1130A105F914F913F912F910F9000925F000F9043
S1130A201F901895CF92EF920F93CF93DF9300D03E
S1130A301F92CDB7DEB709DE8CE390E0AC0160E035
S1130A4080E096DC81E590E0AC0160E081E090DC40
S1130A508EE590E0AC0162E183E08ADC19821A82BF
S1130A601B828981882F90E0A0E0B0E0C12CE12CAA
S1130A7002E09C01AD016A8182E0B6DC809138011C
S1130A8090913901019789F58A818D5F8A838B81E1
S1130A90882F90E0815D9E4F2981FC0120838B810A
S1130AA08F5F8B8319828B81833008F05FC08981CB
S1130AB0882F90E0A0E0B0E0C12CE12C02E09C0182
S1130AC0AD016A8182E090DC81E690E0AC016AE0ED
S1130AD082E04EDC64EF71E080E090E09FDB89E629
S1130AE090E0AC016AE082E043DC809140019091A7
S1130AF041010197C9F489818F5F8983898180319C
S1130B0008F019828981882F90E0A0E0B0E0C12C20
S1130B10E12C02E09C01AD016A8182E065DC64EFB6
S1130B2071E080E090E07ADB8091360190913701AA
S1130B30019709F0A3CF898181508983898180310C
S1130B4010F08FE089838981882F90E0A0E0B0E0E5
S1130B50C12CE12C02E09C01AD016A8182E044DCFD
S1130B6064EF71E080E090E059DB88CF00006DDD38
S1130B7081E790E0AC0160E081E0FADB80912F0135
S1130B80882F90E0A0E0B0E0C12CE12C02E09C01B1
S1130B90AD0166E082E028DC80913001882F90E08E
S1130BA0A0E0B0E0C12CE12C02E09C01AD016AE0C0
S1130BB082E01ADC80913101882F90E0A0E0B0E05F
S1130BC0C12CE12C02E09C01AD016EE082E00CDC62
S1130BD08FE291E00F900F900F90DF91CF910F91E2
S1130BE0EF90CF900895CF92EF920F93CF93DF932E
S1130BF0CDB7DEB72D970FB6F894DEBF0FBECDBFCD
S1130C009D878C8722DD87E02BDD998788878885FF
S1130C1099850024880F991F001C880F991F001CB8
S1130C20892F902D9987888787E090E09A8389831C
S1130C301C821B8289819A8140E050E060E070E070
S1130C402ADD1D8288E08E8386E890E0AC0160E0B6
S1130C5083E08EDB8BE990E0AC0162E081E088DB2D
S1130C6095C01F828FC087E0FBDC9B878A878A85BB
S1130C709B850024880F991F001C880F991F001C56
S1130C80892F902D9B878A878D81882F90E02C85D2
S1130C903D85820F931FFC018081282F30E08A85D7
S1130CA09B852817390709F046C040E050E067E00B
S1130CB070E080E090E0EFDC8091380190913901A0
S1130CC0019709F040C08B819C81880F991F9C83F8
S1130CD08B838B819C8101969C838B8327E030E0FE
S1130CE08B819C81A901481B590BCA019A83898372
S1130CF081E08F838D81882F90E02C853D85820F44
S1130D00931FFC018081882F90E0A0E0B0E0C12C0B
S1130D10E12C02E09C01AD016E8181E065DB8E81F6
S1130D208D5F8E838D818F5F8D8364EF71E080E0B2
S1130D3090E074DA08C02B813C8189819A8140E07B
S1130D4050E0B901A8DC80913801909139010197F4
S1130D50C9F48D81882F90E02C853D85820F931FE7
S1130D60FC018081282F30E08A859B85281739076C
S1130D7049F040E050E060E070E080E090E08BDC1F
S1130D8080E010C08F81882309F46DCF8D8183307A
S1130D9008F467CF40E050E060E070E080E090E06D
S1130DA07ADC81E02D960FB6F894DEBF0FBECDBF7E
S1130DB0DF91CF910F91EF90CF900895CF93DF9370
S1130DC000D01F92CDB7DEB740DC8CEA90E0AC01D6
S1130DD060E080E0CDDA8EEB90E0AC016DE083E082
S1130DE0C7DA64EF71E080E090E018DA80913601B0
S1130DF0909137010197A9F415DE9A83898325DC44
S1130E0086EC90E0AC0160E080E0B2DA88ED90E03E
S1130E10AC0160E083E0ACDA64EF71E080E090E084
S1130E20FDD980913C0190913D010197D1F58981D3
S1130E309A81D9DE8B838B818130D1F406DC8DEEEF
S1130E4090E0AC0160E081E093DA60E177E280E079
S1130E5090E0E4D9FADB81E091E0AC0160E080E06D
S1130E6087DA83E191E0AC0160E083E081DA19C0C4
S1130E70ECDB88E291E0AC0160E081E079DA60E1EA
S1130E8077E280E090E0CAD9E0DB8CE391E0AC014A
S1130E9060E080E06DDA8EE491E0AC0160E083E034
S1130EA067DA8091380190913901019709F09ECF5A
S1130EB0CCDB64E670E080E090E0B0D90000000094
S1130EC00F900F900F90DF91CF910895CF93DF9300
S1130ED0CDB7DEB7CE55D1090FB6F894DEBF0FBE3D
S1130EE0CDBFB3DB8FE190E09A8389831E861D8694
S1130EF083E08F8781E08B831C8285E08D831E8253
S1130F008FE0888B83E1898B85E08F8318860EC000
S1130F108885882F90E09E012C5E3F4F820F931F9F
S1130F202FE0FC01208388858F5F88878885843142
S1130F3078F319860EC08985882F90E09E01285D7C
S1130F403F4F820F931F23E1FC01208389858F5F2C
S1130F5089878985843178F31A8683E2E2E0F1E0B7
S1130F60DE01DC9601900D928A95E1F788E290E02B
S1130F709B8B8A8B29813A818D859E85A90160E0AE
S1130F8070E089DB78C18E81882309F04CC08A85A2
S1130F90833271F45ADB83E691E0AC0166E081E0D0
S1130FA0E7D960ED77E080E090E038D981E075C161
S1130FB08A85882F90E09E01245C3F4F820F931F07
S1130FC0FC018081888B8A858F5F8A871B8626C077
S1130FD08B85882F90E09E012C5E3F4F820F931FDC
S1130FE0FC0180818F30B9F48B85882F90E09E01BD
S1130FF02C5E3F4F820F931F2889FC0120838B8531
S1131000882F90E09E01285D3F4F820F931F29890E
S1131010FC01208306C08B858F5F8B878B85843191
S1131020B8F284E18E838F81882309F0D0C01C86B6
S1131030C8C08C85882F90E09E012C5E3F4F820FA4
S1131040931FFC018081843008F046C04BE651E0D8
S11310508C85882F90E09E01285D3F4F820F931F5F
S1131060FC0160818C85882F90E09E012C5E3F4FAF
S1131070820F931FFC0180817BD98C85882F90E09F
S11310802C85222F30E0AE01485D5F4F240F351FC1
S1131090F90120814FEF420F9E01285D3F4F820FDF
S11310A0931FFC0140834DE651E08C85882F90E02E
S11310B09E01285D3F4F820F931FFC0160818C8548
S11310C0882F90E09E012C5E3F4F820F931FFC01FE
S11310D080814ED985E08F838C85882F90E09E0196
S11310E0285D3F4F820F931FFC018081823010F5F1
S11310F04FE651E08C85882F90E09E01285D3F4F9C
S1131100820F931FFC0160818C85882F90E09E01E3
S11311102C5E3F4F820F931FFC01808129D98C855F
S1131120882F90E09E012C5E3F4F820F931F2FE08B
S1131130FC0120838C85882F90E09E01285D3F4F21
S1131140820F931FFC0190818F859817B9F58C85C8
S1131150882F90E09E012C5E3F4F820F931FFC016D
S113116090818B81981751F58C81882339F581E71B
S113117091E02F852150AC01622F8B81F9D88981B0
S11311809A81969587959A8389832FE130E08981A6
S11311909A81A901481B590BCA019E878D87298111
S11311A03A818D859E85A90160E070E074DA84E15E
S11311B08C8366E970E080E090E030D88C858F5FA6
S11311C08C878C85843108F434CF85E08F8384E761
S11311D091E0AC016F858B81CBD8809140019091D7
S11311E04101019799F48D81882381F486E791E088
S11311F0AC016F858B81BCD88B8181508B838B81B3
S1131200853010F083E08B8385E08D8380913801F5
S113121090913901019791F48D81882379F488E7BD
S113122091E0AC016F858B81A3D88B818F5F8B8319
S11312308B81853008F01B8285E08D838D81882326
S113124019F08D8181508D838F81882319F08F81CE
S113125081508F838C81882319F08C8181508C83F9
S11312608E8181508E838A899B89CC01A0E0B0E075
S1131270BC01CD01D3D789819A81892B09F083CE12
S1131280E4D98AE791E0AC0166E081E071D860EDD1
S113129077E080E090E0C2D780E0C25ADF4F0FB61B
S11312A0F894DEBF0FBECDBFDF91CF910895CF93E9
S11312B0DF93CDB7DEB73EDAA5D983E891E0AC0180
S11312C060E080E055D883E991E0AC0160E083E020
S11312D04FD88091360190913701019771F46EDDFA
S11312E0B4D983EA91E0AC0160E080E041D883EBBB
S11312F091E0AC0160E083E03BD880913C019091A7
S11313003D01019731F7E2DDA0D983EC91E0AC0116
S113131060E080E02DD883ED91E0AC0160E083E0F3
S113132027D840E050E060E070E080E090E0B3D97E
S1131330D0CFA1E21A2EAA1BBB1BFD010DC0AA1F10
S1131340BB1FEE1FFF1FA217B307E407F50720F02A
S1131350A21BB30BE40BF50B661F771F881F991FA5
S11313601A9469F760957095809590959B01AC01EE
S10D1370BD01CF010895F894FFCFEA
S113137AC800010002010100030203030200020380
S113138A0001020301030201000003000102030039
S109139A03020100010042
S9030000FC
