S01600004E657572616C5F4E6574776F726B2E737265635E
S113000085C000008EC000008CC000008AC00000C3
S113001088C0000086C0000084C0000082C00000C8
S113002080C000007EC000007CC000007AC00000D8
S113003078C0000076C0000074C0000072C00000E8
S113004070C000006EC000006CC000006AC00000F8
S113005068C0000066C0000064C0000062C0000008
S113006060C000005EC000005CC000005AC0000018
S113007058C0000056C0000054C0000052C0000028
S113008050C000004EC000004CC000004AC0000038
S113009048C0000046C0000044C0000042C0000048
S11300A040C000003EC000003CC000003AC0000058
S11300B038C0000036C0000034C0000032C0000068
S11300C030C000002EC000002CC000002AC0000078
S11300D028C0000026C0000024C0000022C0000088
S11300E020C0000007634236B79BD8A71A39685668
S11300F018AEBAAB558C1D3CB7CC5763BD6DEDFD46
S1130100753EF6177231BF000000803F11241FBEF8
S1130110CFEFD1E2DEBFCDBF00E00CBF8BD30C9498
S1130120D0086ECFCF92DF92EF92FF920F93CF93CE
S1130130DF93CDB7DEB762970FB6F894DEBF0FBE7C
S1130140CDBF998788876A875C874B872D870E8701
S1130150CF86D88AE98AFA8A888599852A85DC0136
S11301602C93888599858F56934F2D85FC01208388
S1130170888599858E56934F2E85DC012C9388852E
S113018099859C012D56334F8F859889A989BA8901
S1130190F90180839183A283B383888599858F56DF
S11301A09E4F2A85DC012C938B859C85FC01208144
S11301B0888599858E569E4FDC012C93198236C012
S11301C01A8228C08981882F90E02A81422F50E02A
S11301D028853985880F991FBC01660F771F660F24
S11301E0771F860F971F840F951F880F991F880FFD
S11301F0991F820F931F9C012F5F3F4F8DEC9CEC46
S1130200ACECBDE3F90180839183A283B3838A813B
S11302108F5F8A83888599858E569E4FDC019C91D9
S11302208A81891778F289818F5F89838885998586
S11302308F569E4FFC0190818981891708F281E0D5
S11302408B83AEC08B81682F70E08B81882F90E008
S113025001972B853C85820F931FDC01EC91288547
S1130260398542E951E0649FC001659F900D749FF8
S1130270900D1124820F931F8F569E4FDC01EC9337
S11302808B81882F90E02B81222F30E04B855C8579
S1130290240F351FD901EC9128853985BC016F5F86
S11302A07F4F42E951E0649FC001659F900D749FA8
S11302B0900D1124820F931FDC01EC931C8255C016
S11302C01D8237C08B81E82FF0E08C81882F90E06D
S11302D02D81422F50E028853985880F991FBC0154
S11302E0660F771F660F771F860F971F840F951F62
S11302F0AC01440F551F440F551F62E971E0E69F9E
S1130300C001E79F900DF69F900D1124840F951F57
S1130310820F931F9C012F5F3F4F8DEC9CECACEC44
S1130320BDE3F90180839183A283B3838D818F5FC1
S11303308D838B81882F90E028853985BC016F5F80
S11303407F4F42E951E0649FC001659F900D749F07
S1130350900D1124820F931FDC019C918D818917CC
S113036008F4B0CF8C818F5F8C838B81682F70E011
S11303702885398542E951E0649FC001659F900D4D
S1130380749F900D1124820F931F8F569E4FFC0172
S113039090818C81891708F493CF8B818F5F8B8335
S11303A0888599858F56934FDC019C918B818917A1
S11303B008F448CF8D85682F70E08D85882F90E0F4
S11303C001972B853C85820F931FDC01EC912885D6
S11303D0398542E951E0649FC001659F900D749F87
S11303E0900D1124820F931F8F569E4FDC01EC93C6
S11303F08D85882F90E028853985BC016F5F7F4FFC
S113040042E951E0649FC001659F900D749F900D77
S11304101124820F931F2E85FC0120831E8255C058
S11304201F8237C08D85E82FF0E08E81882F90E001
S11304302F81422F50E028853985880F991FBC01F0
S1130440660F771F660F771F860F971F840F951F00
S1130450AC01440F551F440F551F62E971E0E69F3C
S1130460C001E79F900DF69F900D1124840F951FF6
S1130470820F931F9C012F5F3F4F8DEC9CECACECE3
S1130480BDE3F90180839183A283B3838F818F5F5E
S11304908F838D85882F90E028853985BC016F5F17
S11304A07F4F42E951E0649FC001659F900D749FA6
S11304B0900D1124820F931FDC019C918F81891769
S11304C008F4B0CF8E818F5F8E838D85682F70E0A6
S11304D02885398542E951E0649FC001659F900DEC
S11304E0749F900D1124820F931F8F569E4FFC0111
S11304F090818E81891708F493CF000062960FB61D
S1130500F894DEBF0FBECDBFDF91CF910F91FF9066
S1130510EF90DF90CF900895EF92FF920F931F9387
S1130520CF93DF9300D000D0CDB7DEB79C838B830D
S11305307E836D838B819C8180579E4FFC0120813B
S11305408D819E8180579E4FFC0120838B819C81ED
S11305508F569E4FFC0120818D819E818F569E4F28
S1130560FC012083198269C01A825AC08981E82E4D
S1130570F12C8A81082F10E08981882F90E02A814C
S1130580422F50E02B813C81880F991FBC01660FDC
S1130590771F660F771F860F971F840F951F880F8D
S11305A0991F880F991F820F931FFC0180819181ED
S11305B0A281B381B058BC01CD0106D4DC01CB01CA
S11305C020E030E040E85FE3BC01CD012CD3DC0146
S11305D0CB019C01AD0160E070E080E89FE387D32C
S11305E0DC01CB019C01AD016D817E81C701880FC7
S11305F0991FFC01EE0FFF1FEE0FFF1F8E0F9F1FB1
S1130600800F911F880F991F880F991F860F971FBE
S1130610FC0120833183428353838A818F5F8A83E1
S11306208B819C818F569E4FFC0190818A81891712
S113063008F49CCF89818F5F89838B819C8180574B
S11306409E4FFC0190818981891708F48DCF0000A9
S113065026960FB6F894DEBF0FBECDBFDF91CF91C3
S11306601F910F91FF90EF900895CF93DF93CDB733
S1130670DEB7CF54D6400FB6F894DEBF0FBECDBF61
S11306809E0128543B4FF90191838083CE01865407
S11306909B4FFC0171836083CE0184549B4FFC010A
S11306A051834083CE0184549B4FFC01808191810E
S11306B0AC014F5F5F4F9E0122543B4FCE018654E5
S11306C09B4FFC0180819181BC01C9014FD19E01E6
S11306D022543B4F82E991E0F901DE011296019028
S11306E00D920197E1F79E012C563E4FCE010296E2
S11306F0B90112DF81E0898334C08981682F70E0F9
S11307009E0124543B4F42E951E0649FC001659F20
S1130710900D749F900D11240196F901208131816F
S1130720A901480F591FCE0182549B4F9E012C569C
S11307303E4FB9011BD19E0122543B4F82E991E007
S1130740F901DE01129601900D920197E1F79E01E5
S11307502C563E4FCE010296B901DEDE89818F5FB1
S11307608983CE0184549B4FFC01808191818F56F3
S1130770934FFC0190818981891708F4BECFCE0183
S113078084549B4FFC01808191818F56934FFC01CF
S11307908081682F70E09E0124543B4F42E951E070
S11307A0649FC001659F900D749F900D1124019664
S11307B0F90120813181A901480F591FCE018254CA
S11307C09B4F9E012C563E4FB901D0D09E0122541E
S11307D03B4F82E991E0F901DE01129601900D92FE
S11307E00197E1F79E012A5D3C4FCE010296B901C3
S11307F093DECE0188549B4FFC0120813181AE01F0
S11308004A5D5C4F82E991E0FA01D90101900D92B1
S11308100197E1F7CE0188549B4FFC0180819181BF
S1130820C15BD94F0FB6F894DEBF0FBECDBFDF91C9
S1130830CF910895CF92DF92EF92FF920F93CF93CF
S1130840DF93CDB7DEB7CF5BDF400FB6F894DEBFE2
S11308500FBECDBF81E091E02FEFFC01208382E049
S113086091E0FC011082CE018756934F22E0FC01F7
S11308702083CE018756934F23E0FC012183CE01D0
S11308808756934F22E0FC012283AE014756534F13
S1130890CE0102960F2EFAE0CF2EF7EDDF2EF3E213
S11308A0EF2EFCE3FF2EF02D08E023E068E03ADCB5
S11308B0CE018456934F80579E4F25E0FC01208340
S11308C0CE018456934F8F569E4F28E0FC0120831F
S11308D0198226C08981882F90E02981422F50E017
S11308E09E012456334F880F991FBC01660F771F52
S11308F0660F771F860F971F840F951F880F991F08
S1130900880F991F280F391F80E090E0A0E8BFE30B
S1130910F90180839183A283B38389818F5F898363
S1130920CE018456934F80579E4FFC01908189815C
S1130930891780F2CE01825D914FAE014E5F5F4F09
S11309409E012456334FB90190DE80E090E0C154FB
S1130950D04F0FB6F894DEBF0FBECDBFDF91CF915D
S11309600F91FF90EF90DF90CF900895AF92BF92D8
S1130970CF92DF92EF92FF920F931F93CF93DF9367
S1130980CDB7DEB7CC59D1400FB6F894DEBF0FBE59
S1130990CDBF9E0129563E4FF90191838083CE013C
S11309A087569E4FFC0171836083CE0185569E4F0E
S11309B0FC0151834083CE0187569E4FFC01808108
S11309C091818F569E4FFC012081CE0185569E4F0A
S11309D0FC018081918180579E4FFC018081281702
S11309E009F0F9C0CE0185569E4FFC0180819181AA
S11309F08F569E4FFC012081CE018A569E4FFC01EA
S1130A002083CE0187569E4FFC01808191818057BF
S1130A109E4FFC012081CE018B569E4FFC0120830A
S1130A201982BBC01A82A8C01B821C8269C08B8138
S1130A30882F90E0092E000CAA0BBB0BBC01CD0142
S1130A401DD25B016C018981682F70E08C81482F75
S1130A5050E0CE0187569E4FFC0120813181CB01AD
S1130A60880F991FBC01660F771F660F771F860FCB
S1130A70971F840F951F880F991F880F991F820F46
S1130A80931FFC01E080F180028113818C81682F27
S1130A9070E08A81482F50E0CE0185569E4FFC01BC
S1130AA020813181CB01880F991FBC01660F771F0C
S1130AB0660F771F860F971F840F951F880F991F46
S1130AC0880F991F820F931FFC0180819181A2815D
S1130AD0B3819C01AD01C801B701F1D2DC01CB01A6
S1130AE09C01AD01C601B5019ED0DC01CB01BC0166
S1130AF0CD0196D1DC01CB018B838C818F5F8C83FC
S1130B00CE0185569E4FFC018081918180579E4F76
S1130B10FC0190818C81891708F489CF8981E82EA2
S1130B20F12C8A81082F10E08B81882F90E0A0E0BF
S1130B30B0E0BC01CD01A0D19B01AC01C701880F7D
S1130B40991FBC01660F771F660F771F860F971FCB
S1130B50800F911F880F991F880F991FBE016F5F27
S1130B607F4F860F971F0496FC01208331834283B5
S1130B7053838A818F5F8A83CE0185569E4FFC0101
S1130B80808191818F569E4FFC0190818A818917C3
S1130B9008F44ACF89818F5F8983CE0187569E4F9F
S1130BA0FC018081918180579E4FFC019081898155
S1130BB0891708F437CFCE0189569E4FFC01208156
S1130BC0318182E991E0FE013596D90101900D92BF
S1130BD00197E1F70FC0CE0189569E4FFC01208199
S1130BE0318182E991E0FE013596D90101900D929F
S1130BF00197E1F7CE0189569E4FFC0180819181D6
S1130C00C456DE4F0FB6F894DEBF0FBECDBFDF91E2
S1130C10CF911F910F91FF90EF90DF90CF90BF90F5
S1130C20AF9008955058BB27AA270ED09EC18FD1EC
S1130C3030F094D120F031F49F3F11F41EF45FC1E1
S1130C400EF4E095E7FB55C1E92FA0D180F3BA1764
S1130C50620773078407950718F071F49EF5B8C10D
S1130C600EF4E0950B2EBA2FA02D0B01B9019001C3
S1130C700C01CA01A0011124FF27591B99F0593F07
S1130C8050F4503E68F11A16F040A22F232F342F4F
S1130C904427585FF3CF469537952795A795F0409D
S1130CA05395C9F77EF41F16BA0B620B730B840BB2
S1130CB0BAF09150A1F0FF0FBB1F661F771F881F6A
S1130CC0C2F70EC0BA0F621F731F841F48F48795C2
S1130CD077956795B795F7959E3F08F0B3CF9395B1
S1130CE0880F08F09927EE0F9795879508950CD0F3
S1130CF03CC134D140F02BD130F021F45F3F19F0E6
S1130D00F8C0511166C1FBC041D198F39923C9F3CE
S1130D105523B1F3951B550BBB27AA2762177307FD
S1130D20840738F09F5F5F4F220F331F441FAA1FB1
S1130D30A9F333D00E2E3AF0E0E830D09150504071
S1130D40E695001CCAF729D0FE2F27D0660F771F1F
S1130D50881FBB1F261737074807AB07B0E809F001
S1130D60BB0B802DBF01FF2793585F4F2AF09E3F96
S1130D70510568F0BEC02DC15F3FECF3983EDCF333
S1130D80869577956795B795F7959F5FC9F7880F0F
S1130D90911D9695879597F90895E1E0660F771F61
S1130DA0881FBB1F621773078407BA0720F0621BF2
S1130DB0730B840BBA0BEE1F88F7E095089519F4B2
S1130DC00EF097C005C19BC0E9D0C8F39638C0F7B0
S1130DD007F80F92E8942BE33AEA48EB5FE77DD1FA
S1130DE00F920F920F924DB75EB70F9235D1E4EE8A
S1130DF0F0E088D04F915F91EF91FF91E595EE1F60
S1130E00FF1F49F0FE57E0684427EE0F441FFA9590
S1130E10E1F74195550BECD00F9007FEE0C0089523
S1130E20BDD088F09F5790F0B92F9927B751A0F003
S1130E30D1F0660F771F881F991F1AF0BA95C9F76A
S1130E4012C0B13081F0C4D0B1E00895C1C0672FA1
S1130E50782F8827B85F39F0B93FCCF3869577951A
S1130E606795B395D9F73EF4909580957095619503
S1130E707F4F8F4F9F4F0895E89409C097FB3EF42E
S1130E8090958095709561957F4F8F4F9F4F9923D3
S1130E90A9F0F92F96E9BB279395F6958795779551
S1130EA06795B795F111F8CFFAF4BB0F11F460FF11
S1130EB01BC06F5F7F4F8F4F9F4F16C0882311F069
S1130EC096E911C0772321F09EE8872F762F05C07D
S1130ED0662371F096E8862F70E060E02AF09A9518
S1130EE0660F771F881FDAF7880F9695879597F90D
S1130EF0089597F99F6780E870E060E008959FEF98
S1130F0080EC0895DF93CF931F930F93FF92EF929A
S1130F10DF927B018C01689405C0DA2EEF01DBD0EF
S1130F20FE01E894A5912591359145915591AEF333
S1130F30EF018ADEFE019701A801DA9479F7DF90C8
S1130F40EF90FF900F911F91CF91DF9108950024AE
S1130F500A941616170618060906089500240A941A
S1130F6012161306140605060895092E0394000CA0
S1130F7011F4882352F0BB0F40F4BF2B11F460FF2F
S1130F8004C06F5F7F4F8F4F9F4F089557FD905858
S1130F90440F551F59F05F3F71F04795880F97FB39
S1130FA0991F61F09F3F79F08795089512161306F3
S1130FB01406551FF2CF4695F1DF08C01616170622
S1130FC01806991FF1CF8695710561050894089557
S1130FD0E894BB2766277727CB0197F908959B01EF
S1130FE0AC0160E070E080E89FE381CE82CFCAC0AC
S1130FF0D5DFE8F39923D9F3940F511DBBF3915036
S1131000504094F059F0882332F0660F771F881F00
S113101091505040C1F79E3F510544F7880F911DF0
S11310209695879597F908955F3FACF0983E9CF0AC
S1131030BB27869577956795B79508F4B160939526
S1131040C1F7BB0F58F711F460FFE8CF6F5F7F4F14
S11310508F4F9F4FE3CFBDCFFA01DC01AA0FBB1F17
S11310609B01AC01BF5728F422273327442750782B
S11310701FC0B75188F4AB2F0024469537952795A8
S1131080011CA395D2F3002069F0220F331F441FE3
S1131090B395DAF30DD0C6CD61307105A0E88A07A7
S11310A0B94630F49B01AC016627772788279078EE
S11310B0309621F0208331834283538308950BD0EB
S11310C054CF45DF28F04ADF18F0952309F011CFFB
S11310D016CF11247ECF5ADFA0F3959FD1F3950F3D
S11310E050E0551F629FF001729FBB27F00DB11DA8
S11310F0639FAA27F00DB11DAA1F649F6627B00D38
S1131100A11D661F829F2227B00DA11D621F739F20
S1131110B00DA11D621F839FA00D611D221F749F2E
S11311203327A00D611D231F849F600D211D822F75
S1131130762F6A2F11249F5750408AF0E1F08823BC
S11311404AF0EE0FFF1FBB1F661F771F881F9150C9
S11311505040A9F79E3F510570F0CBCE3ACF5F3F88
S1131160ECF3983EDCF3869577956795B795F795FC
S1131170E7959F5FC1F7FE2B880F911D9695879584
S113118097F908959F3F31F0915020F48795779512
S11311906795B795880F911D9695879597F908954A
S10711A0F894FFCFED
S9030000FC
