:10000000B2C00000CFC00000CDC00000CBC00000D7
:10001000C9C00000C7C00000C5C00000C3C00000C8
:10002000C1C00000BFC00000BDC00000BBC00000D8
:10003000B9C00000B7C00000B5C00000B3C00000E8
:10004000B1C00000AFC00000ADC00000ABC00000F8
:10005000BCC00000A7C00000A5C00000A3C00000F5
:10006000A1C000009FC000009DC000009BC0000018
:1000700099C0000097C0000095C0000093C0000028
:1000800091C000008FC000008DC000008BC0000038
:1000900089C0000087C0000085C0000083C0000048
:1000A00081C000007FC000007DC000007BC0000058
:1000B00079C0000077C0000075C0000073C0000068
:1000C00071C000006FC000006DC000006BC0000078
:1000D00069C0000067C0000065C0000063C0000088
:1000E00061C0000007634236B79BD8A71A3968562B
:1000F00018AEBAAB558C1D3CB7CC5763BD6DEDFD4A
:10010000753EF6177231BF000000803F0800000006
:10011000BE922449123EABAAAA2ABECDCCCC4C3EFC
:1001200000000080BEABAAAAAA3E00000000BF00EB
:100130000000803F0000000000084178D3BB4387E7
:10014000D1133D190E3CC3BD4282AD2B3E68EC82FB
:1001500076BED98FE1A93E4C80EFFFBE01C4FF7F80
:100160003F000000000011241FBECFEFD1E2DEBF30
:10017000CDBF00E00CBF12E0A0E0B2E0E2EAF0E1A7
:1001800000E00BBF02C007900D92A430B107D9F771
:1001900022E0A4E0B2E001C01D92A134B207E1F771
:1001A0008CD07DC72DCFCF93DF93CDB7DEB781E85D
:1001B00090E021E0FC0120838FE690E021E0FC014B
:1001C00020830000DF91CF9108951F920F9200903D
:1001D0005F000F9211248F939F93CF93DF93CDB73E
:1001E000DEB780910402909105020196909305027A
:1001F000809304020000DF91CF919F918F910F9027
:1002000000925F000F901F901895CF93DF9300D05E
:10021000CDB7DEB78B831A82198224C082E290E0C8
:10022000FC011082109205021092040200008091DD
:100230000402909105020597D0F382E290E02FEF3F
:10024000FC012083109205021092040200008091AC
:100250000402909105020597D0F389819A81019655
:100260009A8389838B81282F30E089819A81821734
:100270009307A4F200000F900F900F90DF91CF91A1
:100280000895CF93DF931F921F92CDB7DEB79A8365
:10029000898310920502109204020000209104024A
:1002A0003091050289819A8128173907B8F3000037
:1002B0000F900F90DF91CF910895CF93DF931F920E
:1002C0001F92CDB7DEB781E290E02FEFFC012083D3
:1002D00087E290E0FC0110828DE290E0FC01108248
:1002E00081E091E02FEFFC01208382E091E0FC01AE
:1002F000108282E290E02FEFFC01208354DF78949B
:10030000198217C08981882F90E00296880F991F63
:10031000880F991F9C01285F3D4F8DEC9CECACEC45
:10032000BDE3F90180839183A283B38389818F5FC9
:1003300089838981883030F3109230021092310223
:10034000109232021092330210923402109235024F
:10035000109236021092370210923802109239022F
:1003600010923A0210923B028DEC9CECACECBDE397
:1003700080933C0290933D02A0933E02B0933F02D3
:1003800084E043DF82E091E022E031E0F901208166
:100390002061FC0120838CE290E0FC018081882FA9
:1003A00090E080719927892BB1F382E091E022E0FF
:1003B00031E0F90120812860FC0120831A8224C0E9
:1003C0008A81882F90E026E230E0F9012081422FD7
:1003D00050E02A81622F70E021E030E002C0220F5D
:1003E000331F6A95E2F7242335234A81442F50E0D6
:1003F00002C0359527954A95E2F7885F9D4FFC012D
:1004000020838A818F5F8A838A818830C8F288E05E
:1004100092E018D18091340290913502A091360279
:10042000B091370220E030E04FE753E4BC01CD014A
:1004300034D5DC01CB018093340290933502A09334
:100440003602B09337028091340290913502A09128
:100450003602B0913702BC01CD01D0D3DC01CB0113
:100460008093400282E290E0209140022095FC01BE
:10047000208384EF91E005DF84E0C7DE82E091E035
:1004800022E031E0F90120812F7EFC01208382E00F
:1004900091E022E031E0F9012081277FFC012083F7
:1004A00082E091E022E031E0F90120812062FC014C
:1004B000208382E290E026E230E0F901208120955D
:1004C000FC0120838CE290E0FC018081882F90E089
:1004D00080719927892B09F48BC082E091E022E09A
:1004E00031E0F90120812F7DFC01208382E091E041
:1004F00022E031E0F90120812061FC01208382E0CB
:1005000091E022E031E0F90120812860FC012083A4
:1005100086E290E0FC018081882F90E0A0E0B0E0CE
:10052000BC01CD0197D3DC01CB01809338029093BD
:100530003902A0933A02B0933B022091020230911B
:1005400003028091000290910102A901BC0188E0A0
:1005500092E0FBD182E091E022E031E0F9012081DC
:100560002F7EFC01208382E091E022E031E0F9015E
:100570002081277FFC01208382E091E022E031E0AE
:10058000F90120812062FC01208380913402909146
:100590003502A0913602B091370220E030E04FE7FB
:1005A00053E4BC01CD0179D4DC01CB01809334024A
:1005B00090933502A0933602B093370280913402B3
:1005C00090913502A0913602B0913702BC01CD0165
:1005D00015D3DC01CB018093400282E290E02091B0
:1005E00040022095FC01208384EF91E04ADE0CC09C
:1005F0008CE290E0FC018081882F90E08072992746
:10060000892B09F44DCF000084E0FFDD82E091E00A
:1006100022E031E0F90120812F7DFC01208382E07E
:1006200091E022E031E0F9012081277FFC01208365
:1006300082E091E022E031E0F90120812061FC01BB
:100640002083A9CE8F929F92AF92BF92CF92DF92DA
:10065000EF92FF92CF93DF9300D0CDB7DEB79B83AD
:100660008A838A819B81FC0114A615A616A617A66B
:100670008A819B81FC0110A611A612A613A61982DD
:1006800044C08A819B81FC01C0A4D1A4E2A4F3A44C
:100690008981882F90E02A813B81820F931FFC0182
:1006A0008081882F90E0092E000CAA0BBB0BBC01A7
:1006B000CD01D2D24B015C018981882F90E02A8143
:1006C0003B810296880F991F880F991F820F931FF5
:1006D000FC0180819181A281B3819C01AD01C501A2
:1006E000B401DBD3DC01CB019C01AD01C701B60134
:1006F00088D1DC01CB012A813B81F90180A791A738
:10070000A2A7B3A789818F5F89838981883008F484
:10071000B8CF8A819B81FC0180A591A5A2A5B3A534
:10072000B058BC01CD013ED2DC01CB0120E030E06D
:1007300040E85FE3BC01CD0164D1DC01CB019C0149
:10074000AD0160E070E080E89FE3BFD1DC01CB0148
:100750002A813B81F90184A795A7A6A7B7A7000026
:100760000F900F900F90DF91CF91FF90EF90DF905F
:10077000CF90BF90AF909F908F9008958F929F924F
:10078000AF92BF92CF92DF92EF92FF920F931F939F
:10079000CF93DF93CDB7DEB727970FB6F894DEBFC0
:1007A0000FBECDBF9F838E838E819F81FC0180A968
:1007B00091A9A2A9B3A92E813F81F90124A535A54C
:1007C00046A557A5BC01CD011BD1DC01CB0120E022
:1007D00030E04FE753E4BC01CD0177D1DC01CB0120
:1007E0006C017D01F7FAF094F7F8F0948E819F8107
:1007F000FC0180A591A5A2A5B3A5BC01CD01D2D1D4
:100800004B015C018E819F81FC0180A591A5A2A571
:10081000B3A5BC01CD01C6D1DC01CB0120E030E0A5
:1008200040E85FE3BC01CD01ECD0DC01CB0120E06E
:1008300030E040E050E4BC01CD0192D3DC01CB01BB
:100840009C01AD01C501B40140D1DC01CB019C018B
:10085000AD01C701B60121D3DC01CB018A839B83A3
:10086000AC83BD83198259C08981082F10E089812A
:10087000882F90E02E813F810296880F991F880F64
:10088000991F820F931FFC01C080D180E280F3800A
:100890008E819F81FC0184A895A8A6A8B7A889810C
:1008A000882F90E02E813F81820F931FFC01808171
:1008B000882F90E0092E000CAA0BBB0BBC01CD01C8
:1008C000CBD1DC01CB012A813B814C815D81BC0114
:1008D000CD01E3D2DC01CB019C01AD01C501B40126
:1008E000DCD2DC01CB019C01AD01C701B60188D08F
:1008F000DC01CB014E815F8198012E5F3F4F220FBB
:10090000331F220F331F240F351FF901808391837A
:10091000A283B38389818F5F89838981883008F4BA
:10092000A3CF000027960FB6F894DEBF0FBECDBF51
:10093000DF91CF911F910F91FF90EF90DF90CF90BB
:10094000BF90AF909F908F900895CF93DF93CDB7D6
:10095000DEB72A970FB6F894DEBF0FBECDBF9E83D9
:100960008D8378876F835A87498781E090E09A83E7
:10097000898331C01C821B8222C08D819E8162DEF0
:100980008D819E81FC0184A595A5A6A5B7A520E033
:1009900030E04FE753E4BC01CD017FD2DC01CB0155
:1009A0002D813E81F90184A795A7A6A7B7A78D81C0
:1009B0009E81E4DE8B819C8101969C838B832B81BD
:1009C0003C8189859A8528173907B8F289819A81EF
:1009D00001969A83898329813A818F81988582172C
:1009E000930740F6109207021092060200002A9622
:1009F0000FB6F894DEBF0FBECDBFDF91CF91089543
:100A00005058BB27AA270ED09EC18FD130F094D169
:100A100020F031F49F3F11F41EF45FC10EF4E09515
:100A2000E7FB55C1E92FA0D180F3BA17620773071E
:100A30008407950718F071F49EF5B8C10EF4E0959F
:100A40000B2EBA2FA02D0B01B90190010C01CA0188
:100A5000A0011124FF27591B99F0593F50F4503E33
:100A600068F11A16F040A22F232F342F4427585F25
:100A7000F3CF469537952795A795F0405395C9F73D
:100A80007EF41F16BA0B620B730B840BBAF09150F5
:100A9000A1F0FF0FBB1F661F771F881FC2F70EC094
:100AA000BA0F621F731F841F48F487957795679567
:100AB000B795F7959E3F08F0B3CF9395880F08F050
:100AC0009927EE0F9795879508950CD03CC134D1A6
:100AD00040F02BD130F021F45F3F19F0F8C05111F4
:100AE00066C1FBC041D198F39923C9F35523B1F3F3
:100AF000951B550BBB27AA2762177307840738F08D
:100B00009F5F5F4F220F331F441FAA1FA9F333D0EB
:100B10000E2E3AF0E0E830D091505040E695001C9F
:100B2000CAF729D0FE2F27D0660F771F881FBB1F5B
:100B3000261737074807AB07B0E809F0BB0B802D35
:100B4000BF01FF2793585F4F2AF09E3F510568F081
:100B5000BEC02DC15F3FECF3983EDCF386957795E0
:100B60006795B795F7959F5FC9F7880F911D969583
:100B7000879597F90895E1E0660F771F881FBB1FDF
:100B8000621773078407BA0720F0621B730B840B8C
:100B9000BA0BEE1F88F7E095089519F40EF097C090
:100BA00005C19BC0E9D0C8F39638C0F707F80F928B
:100BB000E8942BE33AEA48EB5FE77DD10F920F927E
:100BC0000F924DB75EB70F9235D1E4EEF0E088D0CA
:100BD0004F915F91EF91FF91E595EE1FFF1F49F057
:100BE000FE57E0684427EE0F441FFA95E1F7419560
:100BF000550BECD00F9007FEE0C00895BDD088F0F3
:100C00009F5790F0B92F9927B751A0F0D1F0660FF8
:100C1000771F881F991F1AF0BA95C9F712C0B13013
:100C200081F0C4D0B1E00895C1C0672F782F882724
:100C3000B85F39F0B93FCCF3869577956795B39552
:100C4000D9F73EF490958095709561957F4F8F4FC1
:100C50009F4F0895E89409C097FB3EF490958095C6
:100C6000709561957F4F8F4F9F4F9923A9F0F92F72
:100C700096E9BB279395F695879577956795B795F0
:100C8000F111F8CFFAF4BB0F11F460FF1BC06F5FD6
:100C90007F4F8F4F9F4F16C0882311F096E911C0E8
:100CA000772321F09EE8872F762F05C0662371F009
:100CB00096E8862F70E060E02AF09A95660F771F1D
:100CC000881FDAF7880F9695879597F9089597F911
:100CD0009F6780E870E060E008959FEF80EC0895E2
:100CE000DF93CF931F930F93FF92EF92DF927B01DD
:100CF0008C01689405C0DA2EEF01DBD0FE01E89488
:100D0000A5912591359145915591AEF3EF018ADE7C
:100D1000FE019701A801DA9479F7DF90EF90FF9038
:100D20000F911F91CF91DF91089500240A94161618
:100D3000170618060906089500240A9412161306C9
:100D4000140605060895092E0394000C11F4882357
:100D500052F0BB0F40F4BF2B11F460FF04C06F5F73
:100D60007F4F8F4F9F4F089557FD9058440F551F49
:100D700059F05F3F71F04795880F97FB991F61F01D
:100D80009F3F79F087950895121613061406551F94
:100D9000F2CF4695F1DF08C0161617061806991F00
:100DA000F1CF86957105610508940895E894BB27F5
:100DB00066277727CB0197F908959B01AC0160E086
:100DC00070E080E89FE381CE82CF16C1D5DFE8F3E3
:100DD0009923D9F3940F511DBBF39150504094F0D7
:100DE00059F0882332F0660F771F881F91505040CA
:100DF000C1F79E3F510544F7880F911D9695879541
:100E000097F908955F3FACF0983E9CF0BB2786951C
:100E100077956795B79508F4B1609395C1F7BB0FC7
:100E200058F711F460FFE8CF6F5F7F4F8F4F9F4FF0
:100E3000E3CFBDCFFA01DC01AA0FBB1F9B01AC01C0
:100E4000BF5728F422273327442750781FC0B751B3
:100E500088F4AB2F0024469537952795011CA39560
:100E6000D2F3002069F0220F331F441FB395DAF349
:100E70000DD0C6CD61307105A0E88A07B94630F4BF
:100E80009B01AC016627772788279078309621F060
:100E9000208331834283538308950BD054CF45DFA1
:100EA00028F04ADF18F0952309F011CF16CF11244E
:100EB0007ECF5ADFA0F3959FD1F3950F50E0551FD9
:100EC000629FF001729FBB27F00DB11D639FAA279F
:100ED000F00DB11DAA1F649F6627B00DA11D661FEE
:100EE000829F2227B00DA11D621F739FB00DA11D0F
:100EF000621F839FA00D611D221F749F3327A00DC9
:100F0000611D231F849F600D211D822F762F6A2F64
:100F100011249F5750408AF0E1F088234AF0EE0FE9
:100F2000FF1FBB1F661F771F881F91505040A9F7F6
:100F30009E3F510570F0CBCE3ACF5F3FECF3983E29
:100F4000DCF3869577956795B795F795E7959F5F5D
:100F5000C1F7FE2B880F911D9695879597F90895F7
:100F6000FA01EE0FFF1F30962105310599F1611549
:100F7000710561F48038BFE39B0749F168949038AC
:100F8000810561F08038BFEF9B0741F0992342F55E
:100F9000FF3FE1053105210511F1E8940894E7953B
:100FA000D901AA2329F4AB2FBE2FF85FD0F310C0CC
:100FB000FF5F70F4A695E0F7F73950F019F0FF3AAB
:100FC00038F49F779F930CD00F9007FC90580895AA
:100FD0003EF083CE60E070E080E89FE308954FE745
:100FE0009F775F934F933F932F9319D02F913F910A
:100FF0004F915F9152DFD6CD9F3F31F0915020F459
:10100000879577956795B795880F911D96958795E4
:1010100097F908950EF0F0CF60CE689458CEACDE0C
:10102000C8F39923D1F3C6F3DF93CF931F930F93A4
:10103000FF92C92FDD2788232AF02197660F771F9B
:10104000881FDAF720E030E040E85FEB9FE3883963
:1010500020F0803E30F021968F77D3DCECE0F1E099
:1010600003C0CFDCE9E3F1E03BDE8B01BE01EC0124
:10107000FB2E6F5771097595771F880B990BECDD67
:1010800028E132E741E35FE314DFAF2D9801AE01C1
:10109000FF900F911F91CF91DF91C4DC54CEF89453
:0210A000FFCF80
:0410A2001400D0075F
:00000001FF
