S011000053656C665F6D6164652E7372656393
S11300001DC024C023C022C021C020C01FC01EC0E8
S11300101DC01CC01BC01AC019C018C017C016C010
S113002015C014C013C012C011C010C00FC00EC040
S11300300DC00CC00BC00AC009C008C011241FBEEB
S1130040CFEFD2E0DEBFCDBFCCD0F1C0D9CFCF93BC
S1130050DF9300D000D0CDB7DEB78A836B834C83A7
S11300608B81882F90E0880F991F982F8A81292FE0
S1130070282B8C81882F90E0880F991F880F991F57
S1130080822B898387E390E027E0FC01208388E3C7
S113009090E028E330E0F9012081287FFC012083EF
S11300A088E390E028E330E0F90130812981232BB3
S11300B0FC01208300000F900F900F900F90DF91B0
S11300C0CF910895CF93DF9300D000D0CDB7DEB7A2
S11300D09C838B838B819C81892B29F08B819C81D0
S11300E09A83898304C081E090E09A83898389811B
S11300F09A810197E1F700000F900F900F900F90F5
S1130100DF91CF910895CF93DF9300D000D01F9259
S1130110CDB7DEB78A836B834C832D8319822BC0C2
S113012089819A81692F77D0892F882321F440E02F
S113013060E081E08CDF89819B81692F6CD0892FFD
S1130140882321F440E061E080E081DF89819C81A3
S1130150692F61D0892F882321F441E060E080E099
S113016076DF40E060E080E072DF81E090E0AADFCB
S113017089818F5F898399818D81981788F2000026
S11301800F900F900F900F900F90DF91CF910895E3
S1130190CF93DF931F92CDB7DEB789838AE390E0D4
S11301A02AE330E0F90120812C7FFC01208389813E
S11301B0882F90E08130910519F0029739F00CC036
S11301C089E390E0FC018081817007C089E390E0BD
S11301D0FC018081827001C082E00F90DF91CF9199
S11301E00895CF93DF931F92CDB7DEB740E061E06F
S11301F080E02DDF81E0CCDF89838981813029F49F
S113020040E061E080E023DFF5CF20EA41E064E6EE
S113021084E679DFEFCF991B79E004C0991F961724
S113022008F0961B881F7A95C9F780950895F8946D
S1050230FFCFFA
S9030000FC
