S011000053656C665F6D6164652E7372656393
S11300001DC024C023C022C021C020C01FC01EC0E8
S11300101DC01CC01BC01AC019C018C017C016C010
S113002015C014C013C012C011C010C00FC00EC040
S11300300DC00CC00BC00AC009C008C011241FBEEB
S1130040CFEFD2E0DEBFCDBF66D07EC0D9CFCF9395
S1130050DF9300D000D0CDB7DEB78A836B834C83A7
S11300608B81882F90E0880F991F982F8A81292FE0
S1130070282B8C81882F90E0880F991F880F991F57
S1130080822B898387E390E027E0FC01208388E3C7
S113009090E028E330E0F9012081287FFC012083EF
S11300A088E390E028E330E0F90130812981232BB3
S11300B0FC01208300000F900F900F900F90DF91B0
S11300C0CF910895CF93DF931F92CDB7DEB7898385
S11300D08AE390E02AE330E0F90120812C7FFC01DF
S11300E020838981882F90E08130910519F002974F
S11300F039F00CC089E390E0FC018081817007C075
S113010089E390E0FC018081827001C082E00F905D
S1130110DF91CF910895CF93DF931F92CDB7DEB7D0
S113012040E061E080E093DF81E0CCDF8983898176
S1130130813029F440E061E080E089DFF5CF40E0E0
S10F014060E081E084DFF0CFF894FFCF92
S9030000FC
