S01700004763634170706C69636174696F6E322E737265635A
S113000039C053C02CC251C050C04FC03AC24DC0B9
S11300104CC04BC04AC049C048C047C046C045C098
S113002044C043C042C041C040C03FC03EC03DC0C8
S11300303CC03BC03AC039C038C037C041544D45BC
S11300404C20415454494E593834312056312E30C5
S11300500041544D454C20415454494E5938343193
S11300602056312E300068656C6C6F20776F726C8F
S11300706421000011241FBECFEFD2E0DEBFCDBF4C
S113008011E0A0E0B1E0E4EDF8E002C005900D92CB
S1130090A230B107D9F721E0A2E0B1E001C01D927E
S11300A0AC30B207E1F78CD213C4AACFCF93DF935D
S11300B000D0CDB7DEB78A83198204C000008981DD
S11300C08F5F898399818A819817C0F30F900F906D
S11300D0DF91CF910895DC9ADE98DE98DE9ADE9A5D
S11300E0DE98DE98DE9ADE9ADE98DE98DE9ADE9A54
S11300F0DE98DE98DE9ADE9ADE98DE98DE9ADC9848
S1130100DE98DE98DE9A833499F1DC9ADE98DE98E4
S1130110DE9ADC98DE98DE98DE9A84E0DE9860FF52
S113012025C0DC9A6695DE98DE9A8150B9F7DC9892
S113013084E0DE98DE98DE9A8150D9F784E0DE9878
S113014060FF12C0DC9A6695DE98DE9A8150B9F79A
S1130150DC9884E0DE98DE98DE9A8150D9F784E159
S1130160DC9A8150E9F70895DC98EDCFDC98DACF7A
S1130170DC98CCCF0F931F93DF938A018295880F6D
S1130180807E860F8068682F83E4A5DFF801649180
S1130190662369F0D1E001C0D82F84E49CDF81E0BC
S11301A08D0FF801ED0FF11D64916111F5CFDF9111
S11301B01F910F9108950F931F93DF938A018295E6
S11301C0880F807E860F8068682F83E484DFF801BF
S11301D06081662351F0D0E0DF5F84E47CDFF801C6
S11301E0ED0FF11D60816111F7CFDF911F910F9128
S11301F008952F923F924F925F926F927F928F92C7
S11302009F92AF92BF92CF92DF92EF92FF920F93A1
S11302101F93CF93DF93CDB7DEB763970FB6F894F0
S1130220DEBF0FBECDBF8A8B6B8B49015A01C88AD2
S1130230043608F4EBC00456198A0D870B3010F00D
S11302409AE09D872E2CE889EE1508F42E2E9D85C4
S1130250892F90E09F878E87820D911D0B9724F044
S11302607AE0272EED852E1AC501B4012AE030E08C
S113027040E050E00BD3605D6C874AE0342E5AE0D6
S1130280C52ED12CE12CF12C6AE0462E512C612C88
S1130290712C01E010E00C0F1D1F030D111DC50191
S11302A0B401A7019601F2D2CA01B901A3019201D6
S11302B0EDD2605DF8016083D701C601880F991FF4
S11302C0AA1FBB1F6C017D01CC0CDD1CEE1CFF1CA6
S11302D0CC0CDD1CEE1CFF1CC80ED91EEA1EFB1E36
S11302E03A94FFEF3F12D5CF2CE08889281B822F48
S11302F09D85891B992309F48CC0FE01319601C0A8
S1130300892F91E0980FA1E0B0E0AC0FBD1FA80FBA
S1130310B11D8C9181939213F3CF8E859F852220FA
S113032039F16D856F5FE1E0F0E0EC0FFD1FE80F40
S1130330F91F8EE28083522D520F962F02C0232F75
S1130340942F41E0490F31E0320FE1E0F0E0EC0F8F
S1130350FD1FE20FF11D2081E1E0F0E0EC0FFD1F35
S1130360E90FF11D20833513EACF260E822D90E08C
S1130370E1E0F0E0EC0FFD1FE80FF91F1082E989BE
S1130380EE2329F18981803311F52E853F85215093
S1130390310912161306DCF480E090E040E060E2DC
S11303A003C0821793079CF44F5FE1E0F0E0EC0F89
S11303B0FD1FE80FF91F6083842F90E0E1E0F0E077
S11303C0EC0FFD1FE80FF91F5081503351F3AE01BC
S11303D04F5F5F4F6B898A89EEDE63960FB6F894A0
S11303E0DEBF0FBECDBFDF91CF911F910F91FF9064
S11303F0EF90DF90CF90BF90AF909F908F907F90C1
S11304006F905F904F903F902F90089581E0898B7B
S113041014CF80E090E083CFDF93D49AD69AD2E3CE
S113042088E744DED150E1F764E383E454DE64E317
S113043083E451DE69E083E44EDE60E383E44BDE73
S11304406CE083E448DE61E083E445DED8E088E7DD
S11304502DDED150E1F767E083E4DF913CCE1F92BB
S11304600F9200905F000F921124CF93DF93CDB7CA
S1130470DEB7DF91CF910F9000925F000F901F9035
S113048018951F920F9200905F000F9211242F93E2
S11304903F935F936F937F938F939F93AF93BF9398
S11304A0EF93FF93CF93DF9300D000D0CDB7DEB7A7
S11304B08091080190910901A0910A01B0910B016A
S11304C00196A11DB11D8093080190930901A09389
S11304D00A01B0930B018091040190910501A09150
S11304E00601B09107010097A105B10599F080912B
S11304F0040190910501A0910601B09107010197B3
S1130500A109B1098093040190930501A093060108
S1130510B09307018091000190910101009749F087
S113052080910001909101010197909301018093C2
S113053000018091020190910301019690930301BF
S113054080930201809102019091030128EE33E02F
S1130550B90188D1009749F48BE390E02BE330E0B4
S1130560F90120812160FC01208380910201909196
S1130570030128EE33E0B90175D18233910549F4C2
S11305808BE390E02BE330E0F90120812E7FFC0126
S113059020830F900F900F900F90DF91CF91FF91D8
S11305A0EF91BF91AF919F918F917F916F915F91E7
S11305B03F912F910F9000925F000F901F9018951C
S11305C0CF92EF920F93CF93DF9300D0CDB7DEB7E6
S11305D083E790E0FC01108287E390E027E330E0BA
S11305E0F90120812460FC01208380E590E020E56E
S11305F030E0F90120812168FC01208388E690E045
S113060028E630E0F90120812F73FC01208386E67F
S113061090E026E630E0F90120812068FC01208387
S113062086E590E0FC01108283E590E023E530E06C
S1130630F90120812360FC01208383E490E023E41A
S113064030E0F90120812168FC0120838CE490E0F2
S11306502FEF31E0FC01318320838FE490E02FE41D
S113066030E0F9012081FC0120838FE490E02FE445
S113067030E0F9012081FC0120838EE490E02EE437
S113068030E0F90120812860FC0120838EE490E0B1
S11306902EE430E0F90120812260FC01208382E411
S11306A090E022E430E0F9012081FC0120838AE417
S11306B090E027EE33E0FC01318320838FE290E069
S11306C02FE230E0F90120812260FC01208383E4E1
S11306D090E023E430E0F90120812F77FC012083AE
S11306E08BE590E02BE530E0F90120812061FC01ED
S11306F0208382E390E022E330E0F901208124604A
S1130700FC012083789483E690E023E630E0F9014D
S113071020812C7FFC0120838AE390E02AE330E0EF
S1130720F90120812360FC0120838BE390E02BE31B
S113073030E0F90120812C7FFC0120838AE390E0E2
S11307402AE330E0F90120812F77FC0120838AE33A
S113075090E02AE330E0F90120812860FC01208345
S11307608BE390E02BE330E0F9012081277FFC014B
S1130770208352DE8CE390E0AC0160E081E0FADC9F
S113078089E290E027E0FC01208388E290E0FC010C
S1130790108285E290E025E230E0F9012081206EAC
S11307A0FC01208385E290E025E230E0F90120811C
S11307B02660FC01208384E290E024E230E0F90129
S11307C02081FC0120831982809100019091010114
S11307D00097D9F588EC90E0909301018093000193
S11307E01BDE81E590E0AC0160E080E0C3DC46E61E
S11307F050E060E081E0BEDC809108019091090145
S1130800A0910A01B0910B010F2EF3E0CF2EF02D31
S1130810EE24E3940CE69C01AD0160E083E0E9DCA6
S1130820898191E0980F99839AE0692F0FD0892FDD
S1130830882F90E0A0E0B0E0C12CE12C01E09C0105
S1130840AD0163E180E0D5DCBFCFBECF991B79E079
S113085004C0991F961708F0961B881F7A95C9F74C
S113086080950895AA1BBB1B51E107C0AA1FBB1F9B
S1130870A617B70710F0A61BB70B881F991F5A9528
S1130880A9F780959095BC01CD010895A1E21A2E97
S1130890AA1BBB1BFD010DC0AA1FBB1FEE1FFF1F20
S11308A0A217B307E407F50720F0A21BB30BE40B70
S11308B0F50B661F771F881F991F1A9469F76095B7
S11308C07095809590959B01AC01BD01CF01089571
S10708D0F894FFCFC6
S10508D4C80056
S9030000FC
